{
  "contractName": "Verification",
  "abi": [
    {
      "constant": true,
      "inputs": [],
      "name": "certificateCount",
      "outputs": [
        {
          "name": "",
          "type": "uint256"
        }
      ],
      "payable": false,
      "stateMutability": "view",
      "type": "function"
    },
    {
      "constant": true,
      "inputs": [
        {
          "name": "",
          "type": "uint256"
        }
      ],
      "name": "certificates",
      "outputs": [
        {
          "name": "id",
          "type": "uint256"
        },
        {
          "name": "signature",
          "type": "bytes"
        }
      ],
      "payable": false,
      "stateMutability": "view",
      "type": "function"
    },
    {
      "constant": true,
      "inputs": [
        {
          "name": "",
          "type": "address"
        }
      ],
      "name": "canSign",
      "outputs": [
        {
          "name": "",
          "type": "bool"
        }
      ],
      "payable": false,
      "stateMutability": "view",
      "type": "function"
    },
    {
      "constant": true,
      "inputs": [],
      "name": "authority",
      "outputs": [
        {
          "name": "",
          "type": "address"
        }
      ],
      "payable": false,
      "stateMutability": "view",
      "type": "function"
    },
    {
      "inputs": [
        {
          "name": "signers",
          "type": "address"
        }
      ],
      "payable": false,
      "stateMutability": "nonpayable",
      "type": "constructor"
    },
    {
      "constant": false,
      "inputs": [
        {
          "name": "signed_msg",
          "type": "bytes"
        }
      ],
      "name": "setSign",
      "outputs": [
        {
          "name": "",
          "type": "uint256"
        }
      ],
      "payable": false,
      "stateMutability": "nonpayable",
      "type": "function"
    },
    {
      "constant": true,
      "inputs": [
        {
          "name": "hash",
          "type": "bytes32"
        },
        {
          "name": "signature",
          "type": "bytes"
        }
      ],
      "name": "recover",
      "outputs": [
        {
          "name": "",
          "type": "address"
        }
      ],
      "payable": false,
      "stateMutability": "pure",
      "type": "function"
    }
  ],
  "bytecode": "0x608060405234801561001057600080fd5b506040516020806105a6833981016040908152905160018054600160a060020a03909216600160a060020a03199092168217815560009182526002602052919020805460ff1916909117905561053b8061006b6000396000f3006080604052600436106100775763ffffffff7c010000000000000000000000000000000000000000000000000000000060003504166319045a25811461007c57806352d7b89c14610103578063663b3e221461012a5780637ef30520146101c1578063ace809e714610203578063bf7e214f1461025c575b600080fd5b34801561008857600080fd5b5060408051602060046024803582810135601f81018590048502860185019096528585526100da9583359536956044949193909101919081908401838280828437509497506102719650505050505050565b6040805173ffffffffffffffffffffffffffffffffffffffff9092168252519081900360200190f35b34801561010f57600080fd5b50610118610346565b60408051918252519081900360200190f35b34801561013657600080fd5b5061014260043561034c565b6040518083815260200180602001828103825283818151815260200191508051906020019080838360005b8381101561018557818101518382015260200161016d565b50505050905090810190601f1680156101b25780820380516001836020036101000a031916815260200191505b50935050505060405180910390f35b3480156101cd57600080fd5b506101ef73ffffffffffffffffffffffffffffffffffffffff600435166103f3565b604080519115158252519081900360200190f35b34801561020f57600080fd5b506040805160206004803580820135601f81018490048402850184019095528484526101189436949293602493928401919081908401838280828437509497506104089650505050505050565b34801561026857600080fd5b506100da610458565b6000806000808451604114151561028b576000935061033d565b50505060208201516040830151606084015160001a601b60ff821610156102b057601b015b8060ff16601b141580156102c857508060ff16601c14155b156102d6576000935061033d565b60408051600080825260208083018085528a905260ff8516838501526060830187905260808301869052925160019360a0808501949193601f19840193928390039091019190865af1158015610330573d6000803e3d6000fd5b5050506020604051035193505b50505092915050565b60005481565b6003602090815260009182526040918290208054600180830180548651600293821615610100026000190190911692909204601f8101869004860283018601909652858252919492939092908301828280156103e95780601f106103be576101008083540402835291602001916103e9565b820191906000526020600020905b8154815290600101906020018083116103cc57829003601f168201915b5050505050905082565b60026020526000908152604090205460ff1681565b6000805460019081018083556040805180820182528281526020808201878152938652600381529185208151815592518051919461044c9390850192910190610474565b50506000549392505050565b60015473ffffffffffffffffffffffffffffffffffffffff1681565b828054600181600116156101000203166002900490600052602060002090601f016020900481019282601f106104b557805160ff19168380011785556104e2565b828001600101855582156104e2579182015b828111156104e25782518255916020019190600101906104c7565b506104ee9291506104f2565b5090565b61050c91905b808211156104ee57600081556001016104f8565b905600a165627a7a72305820d625923071c7bb56bbdcf92b5bb4350a6122692014b9301bc33d964ea847601b0029",
  "source": "pragma solidity ^0.4.24;\r\n\r\n/**\r\n * Based upon ECDSA library from OpenZeppelin Solidity\r\n * https://github.com/OpenZeppelin/openzeppelin-solidity/blob/master/contracts/cryptography/ECDSA.sol\r\n */\r\n\r\ncontract Verification {\r\n\r\n  struct Certificate {\r\n    uint id;\r\n    bytes signature;\r\n  }\r\n  \r\n  uint public certificateCount;\r\n  \r\n  address public authority;\r\n  mapping(address => bool) public canSign;\r\n  mapping(uint => Certificate) public certificates;\r\n\r\n  constructor (address signers) public {\r\n    authority = signers;\r\n    //for (uint i=0; i < signers.length; i++) {\r\n    canSign[signers] = true;\r\n    //}\r\n  }\r\n\r\n  modifier isSigner(address user) {\r\n    require(canSign[user] == true);\r\n    _;\r\n  }\r\n\r\n  // storing message signature\r\n  function setSign(bytes signed_msg) public returns(uint) {\r\n    certificateCount++;\r\n    certificates[certificateCount] = Certificate(certificateCount, signed_msg);\r\n    return certificateCount;\r\n  }\r\n\r\n  /** \r\n   * @dev Recover signer address from a message by using their signature\r\n   * @param hash bytes32 message, the hash is the signed message. What is recovered is the signer address.\r\n   * @param signature bytes signature, the signature is generated using web3.eth.sign()\r\n   */\r\n  function recover(bytes32 hash, bytes signature)\r\n    public\r\n    pure\r\n    returns (address)\r\n  {\r\n    bytes32 r;\r\n    bytes32 s;\r\n    uint8 v;\r\n\r\n    // Check the signature length\r\n    if (signature.length != 65) {\r\n      return (address(0));\r\n    }\r\n\r\n    // Divide the signature in r, s and v variables\r\n    // ecrecover takes the signature parameters, and the only way to get them\r\n    // currently is to use assembly.\r\n    // solium-disable-next-line security/no-inline-assembly\r\n    assembly {\r\n      r := mload(add(signature, 0x20))\r\n      s := mload(add(signature, 0x40))\r\n      v := byte(0, mload(add(signature, 0x60)))\r\n    }\r\n\r\n    // Version of signature should be 27 or 28, but 0 and 1 are also possible versions\r\n    if (v < 27) {\r\n      v += 27;\r\n    }\r\n\r\n    // If the version is correct return the signer address\r\n    if (v != 27 && v != 28) {\r\n      return (address(0));\r\n    } else {\r\n      // solium-disable-next-line arg-overflow\r\n      return ecrecover(hash, v, r, s);\r\n    }\r\n  }\r\n}\r\n",
  "sourcePath": "C:\\Users\\darkhan\\Documents\\blockchain\\ethereum development\\dapp tutorial materials\\ipfs_image_uploader-master\\contracts\\Verification.sol",
  "compiler": {
    "name": "solc",
    "version": "0.4.24+commit.e67f0147.Emscripten.clang"
  },
  "schemaVersion": "2.0.1",
  "updatedAt": "2019-02-08T07:12:38.834Z"
}